:020000040800F2
:10000000400F0020D1000008D9000008DB000008E4
:1000100000000000000000000000000000000000E0
:10002000000000000000000000000000DD000008EB
:100030000000000000000000DF000008C95D0008AB
:10004000E300000819510008E3000008E30000087D
:10005000E3000008E3000008E3000008F5090008D9
:10006000E3000008E3000008E3000008E3000008E4
:10007000E3000008E3000008E3000008E3000008D4
:10008000E3000008A15E0008E3000008E3000008A8
:10009000E3000008E3000008E3000008E3000008B4
:1000A000D144000849590008E3000008ED63000846
:1000B000FD630008E30000086D0200080348854660
:1000C00000F096F800480047317A0008400F002001
:1000D0000448804704480047FEE7FEE7FEE7FEE7E6
:1000E000FEE7FEE7295E0008BD00000830B50B46BC
:1000F000014600202022012409E00D46D5409D4202
:1001000005D31D469540491B254695404019154687
:10011000521E002DF1DC30BD70B5002425460028AC
:1001200001DA01244042002901DA01254942FFF7A2
:10013000DDFFAC4200D04042002C00D0494270BDEF
:1001400010B5202A04DB0846203AD040002110BD1B
:100150000B46D340D0402024A21A914008431946B0
:1001600010BD03460B439B0703D009E008C9121FCB
:1001700008C0042AFAD203E00B780370401C491C23
:10018000521EF9D27047D2B201E00270401C491EE3
:10019000FBD270470022F6E710B513460A46044624
:1001A0001946FFF7F0FF204610BD421C0178401CA5
:1001B0000029FBD1801A704703460A780270401C60
:1001C000491C002AF9D1184670470321001D401E22
:1001D000037812021A43491EF9D5104670470346A8
:1001E00003220870000A491C521EFAD518467047AF
:1001F000064C0125064E05E0E36807CC2B430C3C7A
:1002000098471034B442F7D3FFF75CFFD49100084D
:10021000F491000870B58C180578401C6B075B0FD3
:1002200001D10378401C2A1106D10278401C03E05A
:1002300006780E70401C491C5B1EF9D12B0705D4B3
:100240000023521E0DD40B70491CFAE70378401CA2
:10025000CB1A921C03E01D780D70491C5B1C521ECA
:10026000F9D5A142D8D3002070BD000010B50248D6
:1002700000F020FD10BD00001006002070B50446FF
:100280004120005D052807D04120005D042803D0EF
:100290004120005D032828D1042141200155206818
:1002A0000569E807C00F00281DD02068C068C1B2EA
:1002B000626B501C606311700220284000280AD035
:1002C000032021680861012141200155204600F0EA
:1002D000B7FE002070BD012021680861208F401CFE
:1002E00020870020F6E70220F4E70220F2E710B5AD
:1002F00004464120005D032805D0206800680221E3
:100300000840002851D04120005D032802D003217D
:1003100041200155208E00282FD120680068400818
:100320004000216808602068406903210902884371
:1003300021684861206840693921C90188432168E2
:100340004861206800680121084321680860032093
:10035000000221680861206840698007800F00283A
:1003600003D005214120015502E001214120015522
:10037000204601F03BF8002010BD208E012805D159
:10038000206800680421084321680860FF200130CC
:1003900021680861E16A481CE06208782168886089
:1003A000208E401E20860020E6E70220E4E70000C1
:1003B00010B5034801F0F9FA00F004F810BD000090
:1003C000D405002010B50F4801F048FC002818D1D2
:1003D0000D480C4908600D484860002109488160BB
:1003E0000121C1600021016141618161C16101623E
:1003F00001F0DBFA034801F035FC0021014801F06F
:100400008DFA10BDD4050020005400405D3E302020
:10041000F8B504460D461646002701200003334672
:100420002A4621460090064801F07CFC0746002F32
:1004300003D0FFF7BDFF0120F8BD3846FCE7000000
:10044000D4050020F8B504460D46164600270120C5
:10045000000333462A4621460090064801F004FD79
:100460000746002F03D0FFF7A3FF0120F8BD0020AF
:10047000FCE70000D40500200346062106221448AC
:10048000018814480288002B15D0012B1DD1002AA9
:1004900006D11148814201D1002070470120FCE7BC
:1004A000002906D10C48824201D10120F5E7002045
:1004B000F3E7AB20F1E7002901D10020EDE7002AA6
:1004C00001D10120E9E7AB20E7E70020E5E70000E4
:1004D00000F0010800F80108EEEE00001FB5002052
:1004E0000090002401901348029001200390694677
:1004F00001A800F09DFF0446002C02D0204604B065
:1005000010BD002213460B49012000F0E5FF044610
:10051000002C01D02046F2E700200190064802900E
:1005200001200390694601A800F082FF044620469E
:10053000E5E7000000F0010800F80108F3B587B016
:1005400000200690062005900626002500270020A2
:100550000490401E0390002495490798086095492F
:100560000898086094480088059094480688059883
:10057000002878D09249401800283AD09149401874
:10058000002871D1002E0ED100908B4801900120DF
:10059000029006A9684600F04BFF0446002C27D0C5
:1005A000204609B0F0BD86484042864219D100205D
:1005B0000090814801900120029006A9684600F051
:1005C00037FF0446002C01D02046EAE700221346FC
:1005D0007A49012000F080FF0446002C08D0204614
:1005E000DFE7FFF77BFF0446002C01D02046D8E769
:1005F000DAE0002E48D1002526E06F48C088690067
:100600006B4A1268515A884201D128B2039003986C
:10061000854217D06900664A1268505A6A4900F04C
:1006200063F90490049801280CD06900604A1268AC
:10063000505A6549098800F08DF90746002F01D00E
:100640003846AEE7681C85B25A4800688542D4D364
:10065000002213465849012000F03EFF0446002CBA
:1006600003D020469DE734E096E0002000905348F8
:1006700001900120029006A9684600F0D9FE0446C8
:10068000002C25D020468CE75048864219D1002006
:1006900000904A4801900120029006A9684600F0A7
:1006A000C7FE0446002C01D020467AE700221346FC
:1006B0004149012000F010FF0446002C08D02046DC
:1006C0006FE7FFF70BFF0446002C01D0204668E7D8
:1006D0006AE0002E06D1FFF701FF0446002C5AD035
:1006E00020465EE7394886420ED10020009033480C
:1006F00001900120029006A9684600F099FE044688
:10070000002C48D020464CE7002526E02B48C08826
:100710006900274A1268515A884201D128B20390D1
:100720000398854217D06900214A1268505A264919
:1007300000F0DAF80490049801280CD069001C4AF3
:100740001268505A2049098800F004F90746002F22
:1007500001D0384625E7681C85B2164800688542F6
:10076000D4D3002213461549012000F0B5FE0446FB
:10077000002C01D0204614E7002000900E48019084
:100780000120029006A9684600F052FE0446002CA3
:1007900001D0204605E707E0FFF7A0FE0446002C45
:1007A00001D02046FDE600BF00BF0020F9E60000B2
:1007B000940000209800002000F0010800F80108D3
:1007C0001211FFFFEFEEFFFF9C000020FFFF000073
:1007D000F3B589B007460025002005903A480490FB
:1007E0003A48039000200290002400260190FFF771
:1007F00043FE02900298012804D135480490354800
:1008000003900AE00298002804D13248049030484E
:10081000039002E0AB200BB0F0BD2F4A0023012073
:10082000049900F059FE0546002D01D02846F2E754
:1008300038460A9900F08EF80646002E01D0304660
:10084000E9E700241FE0600024490968085AB8421B
:1008500017D06100214A1268505A214900F044F82B
:100860000190019801280CD061001C4A1268505A6E
:100870001B49098800F06EF80646002E01D030466C
:10088000C9E7601C84B2174800688442DBD30020AB
:100890000690039807900120089005A906A800F08B
:1008A000C7FD0546002D01D02846B4E700221346B7
:1008B0000120049900F010FE0546002D01D02846C5
:1008C000A9E72846A7E70000FF0301080000010888
:1008D00000F0010800F80108EEEE0000940000208E
:1008E0009C00002098000020FEB506460F4600251B
:1008F0001548029001200190144C204600900020E1
:10090000FFF7BAFD0546AB2D00D1FEBDE802104948
:1009100040180090681CC002891E44180CE0208812
:1009200002900298B04206D120464038C08F3880ED
:100930000020019004E0241F0098801C8442EED81F
:1009400000BF0198E1E700005555000000000108D4
:1009500000F00108FEB505460E4600200190002774
:10096000184C194800900120FFF786FD0746AB2F71
:1009700000D1FEBDF80215494418781CC002891E3A
:100980004018009019E02068401C002814D132461D
:1009900000232146012000F09FFD019001980028CE
:1009A00001D00198E5E72A460023A11C012000F0B0
:1009B00093FD01900198DCE7241D00988442E2D366
:1009C0008020D6E700000108FF07010800F00108B9
:1009D00070B505460E46002431462846FFF7BAFF9B
:1009E0000446802C04D131462846FFF7F1FE044628
:1009F000204670BD10B50120400200F06FFE0120BE
:100A0000400200F06BFE10BD00200749C861074896
:100A1000006904210843054908610846006940212E
:100A20000843024908617047880300200020024003
:100A30000021084AD1610849096902221143064A86
:100A4000116111464861096940221143024A11614E
:100A50007047000088030020002002400022054B60
:100A6000DA61054A126901231A43034B1A610180B6
:100A70007047000088030020002002400D48C06835
:100A800010210840102805D10B48C06902210843F5
:100A90000949C8610748C06804210840042805D1F5
:100AA0000548C069012108430349C8611420014970
:100AB000C8607047002002408803002070B50446DB
:100AC00000F026FF05460BE0601C002808D0002C33
:100AD00004D000F01DFF401BA04201D9032070BDCF
:100AE0000F48C068C007C00F0028EDD10C48C0688F
:100AF00020210840202801D10949C8600848C06861
:100B000010210840102805D00548C068042108407D
:100B1000042803D1FFF7B2FF0120E0E70020DEE761
:100B20000020024000B585B03448406901218905A4
:100B30000843324948610846406901218904084355
:100B40002E494861012000900190002002900390FE
:100B500069462B4800F0D2FD2848406901218904EC
:100B6000084326494861022000900120019000209E
:100B7000029003906946224800F0C0FD1F4840697A
:100B80000121C90408431D49486101204003009028
:100B9000012001900020029003906946194800F05E
:100BA000ADFD002201214903164800F0AAFE1348BA
:100BB00040690121C9040843104948611020009090
:100BC0000120019000200290039069460D4800F03A
:100BD00095FD0A4840690121C90408430749486155
:100BE000202000900120019000200290039069468F
:100BF000044800F083FD05B000BD00000010024075
:100C0000000400480008004810B50446002C01D13B
:100C1000012010BD022141200155204600F06EF94F
:100C20002068006840084000216808600020E063F8
:100C300000214120015500BF4020015500BF002088
:100C4000E7E7000070B5044603F006FA05467C208D
:100C50002840002802D000200F4908603920C00138
:100C60002840002806D00D490D7000200C4908606E
:100C70000C49086020684069400B400321684861C6
:100C80002046FFF7C1FF204600F0FCF80649204649
:100C900000F096F970BD0000F8000020000100206F
:100CA000F4000020FC0000208A0700200146C86BE9
:100CB0007047000010B5044620680069E0632068B2
:100CC000006901210903084000280AD02068406912
:100CD0000840002805D00846216808610721412006
:100CE0000155206800690121C902084000280AD086
:100CF000206840690840002805D00846216808613E
:100D0000072141200155206800690121890208401E
:100D100000280AD0206840690840002805D008460D
:100D20002168086107214120015520680069802160
:100D3000084000280AD0206840690840002805D0F3
:100D40008020216808610721412001552068006941
:100D50000421084000280AD0206840690840002883
:100D600005D0042021680861072141200155206831
:100D700000690821084000280AD02068406908401E
:100D8000002805D00820216808610721412001556D
:100D9000206800691021084000280AD020684069B6
:100DA0000840002805D01020216808610721412053
:100DB0000155206800692021084000280AD02068D9
:100DC00040690840002805D02020216808610721DB
:100DD00041200155206800694021084000280AD0C0
:100DE000206840690840002805D04020216808613B
:100DF000072141200155E06B21490840002802D01D
:100E00002046FFF71FFF20680069C007C00F0028B9
:100E100008D020684069C007C00F002802D02046D3
:100E2000FFF72CFA2068006902210840002807D04B
:100E3000206840690840002802D02046FFF71EFACB
:100E400020680069FF2101310840002807D0206890
:100E500040690840002802D02046FFF748FA206881
:100E60000069012149020840002807D02068406934
:100E70000840002802D02046FFF739FA10BD0000D4
:100E8000FC1C000070B504460025002C01D1012097
:100E900070BD4120005D002802D1204600F046F8D8
:100EA0000221412001552068006840084000216867
:100EB00008606568A0680543E0680543206905434C
:100EC00060690543A0690543E0690543208C00047F
:100ED0000543606A0543206840687F214902084055
:100EE0002843216848602068006801210843216880
:100EF00008600121412001550020C9E70A49C9695C
:100F0000012292079143084AD161114649690122A1
:100F100092049143044A51611146496901229204A5
:100F20009143014A516170470010024010B586B0EC
:100F300004462048C0690121890708431D49C8614A
:100F4000084640690121890408431A494861881507
:100F500001901220029000200390032004900020B2
:100F6000059001A9144800F0C9FB1248406901210D
:100F7000890408430F494861481501900F480290C1
:100F8000022003900020049001A90B4800F0B6FB5A
:100F900000220F21072001F0A9FA072001F09AFA98
:100FA00000220F211E2001F0A1FA1E2001F092FA6A
:100FB00006B010BD001002400004004800001110EF
:100FC00002464120805C012837D1002904D1072343
:100FD000412083540120704700BF4020805C0128DD
:100FE00001D10220F7E701234020835400BF0020F5
:100FF00010875163D0630523412083541068006833
:101000004008400013681860106840697C2318434A
:101010001368586100BF00234020835400BF10684C
:10102000406903231843136858611068006801235E
:101030001843136818600020CDE70220CBE70000BA
:1010400010B50446208F002803D1208F084948742A
:1010500006E0208F401E06494874012005490860BB
:1010600001200549086002492046FFF7A9FF10BD8D
:101070008A070020F0000020F8000020FFB583B0B0
:10108000044617460C9D0020029000260190412046
:10109000005D01287ED120680068022108400028F8
:1010A000F8D1E063002F08D10698002805D0072169
:1010B00041200155012007B0F0BD00BF4020005D78
:1010C000012801D10220F6E701214020015500BF8F
:1010D000032141200155069820860698002805D155
:1010E0002068006804210843216808602820005D0A
:1010F000000104990843C0B20290029821688860F8
:1011000020680068022108432168086060E0208EA2
:10111000401E208600F0FCFB01902AE0681C00289D
:1011200011D0002D05D000F0F3FB0199401AA84220
:1011300009D901214120015500BF0021402001555E
:1011400000BF0320B7E7206806693920C00130409E
:1011500000280ED0E6633920C0012168086107210C
:101160004120015500BF00214020015500BF012052
:10117000A1E720680069FF21013108400028CDD097
:10118000084621680861208E002807D12068006881
:10119000042100E05EE00843216808603878216897
:1011A00088607F1C206806693920C0013040002813
:1011B0000ED0E6633920C001216808610721412073
:1011C000015500BF00214020015500BF012072E7FA
:1011D000208E00289BDC00F09BFB019014E0681C33
:1011E000002811D0002D05D000F092FB0199401A83
:1011F000A84209D907214120015500BF0021402004
:10120000015500BF032056E720680068042108400C
:101210000028E4D1206806690720800230400028B9
:101220000ED0E66307208002216808610721412073
:10123000015500BF00214020015500BF01203AE7C1
:1012400001214120015500BF00214020015500BF70
:10125000002030E702202EE7F8B504460F46164678
:101260001D46002000904120005D012803D0412050
:10127000005D052851D1206800680221084000283F
:101280004BD1002E06D1002D04D00721412001555D
:101290000120F8BD00BF4020005D012801D10220DF
:1012A000F7E701214020015500BFE66203214120FC
:1012B00001550020E0632068006840084000216874
:1012C0000860206840693F21C901084321684861DE
:1012D000206800680121084321680860258600BF56
:1012E00000214020015500BF002D05D12068006875
:1012F00004210843216808602820005D000138436C
:10130000C0B20090009821688860206800680221BF
:101310000843216808600020BBE74120005D0328E6
:1013200005D0206800680221084000285CD000BF7A
:101330004020005D012801D10220AAE701214020C0
:10134000015500BF4120005D032802D00321412048
:101350000155208E00282AD12068006840084000EE
:1013600021680860206840690321090288432168D8
:101370004861206840693921C90188432168486172
:1013800020680068012108432168086003200002EA
:101390002168086101214120015500BF0021402042
:1013A000015500BF204600F021F8002071E7208E93
:1013B000012805D1206800680421084321680860DD
:1013C000FF20013021680861E16A481CE06208786A
:1013D00021688860208E401E208600BF00214020AA
:1013E000015500BF002054E7022052E70021074AC0
:1013F00011600121064A1160016849690222114009
:10140000002902D0052241210A547047F40000202F
:10141000FC00002031B5002400F07AFA044600BF39
:1014200000F076FA001B00998842F9D338BD00001D
:10143000F8B504460E460127002500BF2348007E6C
:10144000012801D10220F8BD01202049087600BF03
:101450001F48FFF733FB0746002F2FD120680128D4
:101460000CD1FFF7D1FA1A48FFF728FB07461948B5
:10147000006904218843174908611FE00020C04328
:101480003060656813E02846FFF7D2FA1048FFF78E
:1014900015FB07460F480069022188430D49086182
:1014A000002F01D0356008E00120C0022D18A1688E
:1014B000C90260684018A842E5D800BF00BF0020FC
:1014C0000249087600BF3846BDE7000088030020C7
:1014D00050C3000000200240F0B51FB486B007469C
:1014E00015461E460120039000240020029000BFF4
:1014F0002548007E012802D102200BB0F0BD01205A
:101500002149087600BF2148FFF7D8FA03900398D5
:10151000002831D1012F02D10120029006E0022FD4
:1015200002D10220029001E00420029000241FE07A
:1015300022012846314604960595FEF701FE80B249
:10154000610001900798081800900199FFF786FA4A
:101550000E48FFF7B3FA03900D48006940084000B9
:101560000B4908610398002800D004E0601CC4B255
:1015700002988442DCDB00BF00BF002002490876ED
:1015800000BF0398B9E700008803002050C30000A3
:10159000002002400748006980210840002805D04B
:1015A0000548044948600548486001E0012070474B
:1015B0000020FCE70020024023016745AB89EFCD06
:1015C000F0B50B4600210022002473E001258D4078
:1015D0001D402A46002A6CD005684F000326BE40F5
:1015E000B5430560CD08AE0005462035AD594E0720
:1015F000F70E0F26BE40B543CE08B600074620378B
:10160000BD5185684F000326BE40B54385604568DF
:1016100001268E40B5434560C5684F000326BE4095
:10162000B543C560264D8E08B600AC598D072E0F08
:101630000F25B5402C400925ED06A84201D1002513
:1016400014E0204DA84201D101250FE01E4DA84213
:1016500001D102250AE01D4DA84201D1032505E074
:101660001B4DA84201D1042500E005258E07360F49
:10167000B540A5421DD18D072E0F0F25B5402C4634
:101680000F4D8E08B600AE59A6438F08BF00EE512D
:10169000104D2D6895430F4E356035466D68954366
:1016A00075603546AD689543B5603546ED68954340
:1016B000F560491C1D46CD40002D87D1F0BD0000CE
:1016C000080001400004004800080048000C0048E1
:1016D00000100048000401407047000010B50446A7
:1016E000054840692040002804D003484461204652
:1016F000FFF7F2FF10BD00000004014070B5034683
:10170000002200240020DAE0012696400D683540D2
:101710002C46002C77D04D68022D02D04D68122D3A
:1017200015D1D508AE001D462035A8595507EE0E37
:101730000F25B5400646AE4330465607F60E0D69F6
:10174000B5402843D508AD001E46203670511868B4
:1017500056000325B5400646AE4330460D79AD0729
:10176000AD0F5600B540284318604D68012D08D0D4
:101770004D68022D05D04D68112D02D04D68122DF7
:1017800018D1986856000325B5400646AE4330464A
:101790005600CD68B54028439860586801259540AB
:1017A0000646AE43304610264D6835402D0995401B
:1017B00028435860D86856000325B5400646AE4316
:1017C000304656008D68B5402843D860012636075C
:1017D0004D683540B54271D13C4DAD690126354368
:1017E0003A4EB5613A4D9608B600A85995072E0FA6
:1017F0000F25B5400646AE4330460925ED06AB42FF
:1018000002D1002515E059E0324DAB4201D101254E
:101810000FE0314DAB4201D102250AE02F4DAB4222
:1018200001D1032505E02E4DAB4201D1042500E096
:1018300005259607360FB5402843254D9608B60076
:10184000A851284D28680546A54328460126360498
:101850004D683540B54202D1054625432846214D05
:10186000286068680546A5432846012676044D6829
:101870003540B54202D1054625432846194D6860DA
:10188000A8680546A5432846012636054D6835401B
:10189000B54202D1054625432846124DA860E868A6
:1018A0000546A5432846012676054D683540B542D4
:1018B00002D10546254328460A4DE860521C0D68B2
:1018C000D540002D00D01FE770BD00000010024081
:1018D000080001400004004800080048000C0048CF
:1018E0000010004800040140024613690B40002B21
:1018F00001D0012000E00020704742694A40426167
:101900007047002A01D0816101E00B0483617047B8
:101910000148006870470000CC00002002463520D6
:10192000805C02280FD03520805C12280BD0352037
:10193000805C222807D03520805C322803D03520F7
:10194000805C422801D10220704700BF3420805CB7
:10195000012801D10220F7E701233420835400BF7E
:101960000223352083541068006840084000136843
:1019700018601068006801231B03984313681860FF
:101980001068006808431368186010680068012335
:1019900018431368186001233520835400BF0023C7
:1019A0003420835400BF0020CEE710B50446002C3D
:1019B00001D1012010BD02213520015520680068A9
:1019C0004008400021680860204600F081FC0020AB
:1019D000A06300213520015500BF3420015500BF10
:1019E0000020E7E710B5044620688069FF21013137
:1019F0000840000A00280DD02068006880210840B7
:101A0000C009002806D0A06B01210843A06308028A
:101A10002168C86120688069012189020840800A24
:101A200000280DD02068006880210840C0090028E7
:101A300006D0A06B08210843A063C8012168C861D3
:101A400020688069012149020840400A00280DD021
:101A50002068006880210840C009002806D0A06BDB
:101A600002210843A06308022168C861A06B002816
:101A700005D0012135200155204600F0EEF810BDBB
:101A800010B50446206880690221084040080028FB
:101A900022D12068806980210840C00900281BD11C
:101AA00020688069402108408009002814D12068FE
:101AB000806920210840400900280DD120688069F4
:101AC000102108400009002806D1206880690821FB
:101AD0000840C008002811D0206800687A2108401A
:101AE0007A2801D1012000E00020012806D135200C
:101AF000005D322802D1204602F0CFFF20688069C5
:101B000002210840400800281BD1206880698021FC
:101B10000840C009002814D120688069402108408D
:101B2000800900280DD120688069202108404009E3
:101B3000002806D12068806910210840000900288B
:101B400015D02068006872210840722801D1012058
:101B500000E0002001280AD13520005D122803D0C2
:101B60003520005D522802D1204602F0DDFD2068BC
:101B70008069042108408008002822D120688069FB
:101B800080210840C00900281BD1206880694021BD
:101B900008408009002814D120688069202108406D
:101BA000400900280DD120688069102108400009F3
:101BB000002806D12068806908210840C008002854
:101BC00011D0206800687C2108407C2801D10120C8
:101BD00000E00020012806D13520005D422802D116
:101BE000204602F0EDFE206880690421084080084C
:101BF00000281BD12068806980210840C009002886
:101C000014D12068806940210840800900280DD146
:101C100020688069202108404009002806D12068FA
:101C20008069102108400009002815D0206800684C
:101C300074210840742801D1012000E0002001280F
:101C40000AD13520005D222803D03520005D6228AE
:101C500002D1204602F0A6FC10BD70470146352097
:101C6000405C704710B50446002C01D1012010BD26
:101C70003520005D002802D1204600F07BFB0221C8
:101C80003520015520680068400840002168086040
:101C90000F21090660688843216808612068806810
:101CA0000121C903884321688860A06800280FD0FB
:101CB000E068012806D10121C903A0680843216812
:101CC000886005E021218902A068084321688860B6
:101CD000E068022802D180022168486020684068DC
:101CE0000E49084321684860616920690843A16979
:101CF000090208432168C860216AE0690843216835
:101D000008602068006801210843216808600020FD
:101D1000A0630121352001550020A8E700800002C2
:101D200070477047FFB581B0044616461D46002730
:101D30003520005D01287DD1002E01D0002D02D17B
:101D4000012005B0F0BD206880690121C903084069
:101D5000C00B002801D00220F3E700BF3420005D53
:101D6000012801D10220ECE701213420015500BFF8
:101D70002221352001550020A063FF2D0BDD092015
:101D8000800201231B06FF2200902046029902F0E8
:101D9000FBFEFF270AE009208002EAB201235B066E
:101DA00000902046029902F0EFFE2F4600BF00226D
:101DB000042120460A9B02F0FFFE002801D00320E8
:101DC000BFE72068406A3070761C7F1E681E85B2AF
:101DD000002F22D1002D20D00022802120460A9BF6
:101DE00002F0EAFE002801D00320AAE7FF2D0ADD59
:101DF000002001231B06FF2200902046029902F0DA
:101E0000C3FEFF2709E00020EAB201235B06009031
:101E10002046029902F0B8FE2F46002DC7DC19219A
:101E2000204602F016FF002807D0A06B042802D13C
:101E3000012086E714E0032083E720202168C861A1
:101E40002068406807490840216848600121352022
:101E5000015500BF00213420015500BF002070E76C
:101E600002206EE700E800FEFFB583B00446164688
:101E70001D460C9F002002903520005D01287DD179
:101E8000002E01D0002D02D1012007B0F0BD206846
:101E900080690121C9030840C00B002801D002203D
:101EA000F3E700BF3420005D012801D10220ECE7F8
:101EB00001213420015500BF122135200155002099
:101EC000A063FF2D0BDD01204003C302FF22009021
:101ED0002046049902F058FEFF20029009E00120FC
:101EE0004003EAB2030300902046049902F04CFE3E
:101EF000029500BF3946204602F0D9FE002806D0E0
:101F0000A06B042801D10120BFE70320BDE7307892
:101F100021688862761C0298401E0290681E85B275
:101F20000298002823D1002D21D03B460022802199
:101F3000204602F041FE002801D00320A5E7FF2D36
:101F40000BDD002001231B06FF2200902046049990
:101F500002F01AFEFF20029009E00020EAB20123FD
:101F60005B0600902046049902F00EFE0295002DBB
:101F7000C0DC3946204602F06CFE00E01BE0002881
:101F800006D0A06B042801D101207EE703207CE766
:101F900020202168C86120684068084908402168FD
:101FA000486001213520015500BF00213420015532
:101FB00000BF002069E7022067E7000000E800FE9C
:101FC00070477047FFB583B004460E9F0C9E0D9D71
:101FD000002002903520005D012876D1002E01D02E
:101FE000002D02D1012007B0F0BD206880690121D9
:101FF000C9030840C00B002801D00220F3E700BF4E
:102000003420005D012801D10220ECE701213420B9
:10201000015500BF6221352001550020A0630097C3
:10202000204604A90EC902F041FC002810D0A06B84
:10203000042806D100BF00213420015500BF012033
:10204000D1E700BF00213420015500BF0320CAE7BB
:10205000FF2D0CDD0920800201231B06FF220090CA
:102060002046049902F090FDFF2002900AE009202A
:102070008002EAB201235B0600902046049902F038
:1020800083FD029500BF3B4600220421204602F05A
:1020900093FD002801D00320A5E72068406A307036
:1020A000761C0298401E0290681E85B20298002895
:1020B00024D1002D22D03B4600228021204602F070
:1020C0007BFD002802D003208DE739E0FF2D0BDDDA
:1020D000002001231B06FF2200902046049902F0F5
:1020E00053FDFF20029009E00020EAB201235B06C5
:1020F00000902046049902F047FD0295002DC2DCB5
:102100001921204602F0A5FD002806D0A06B042866
:1021100001D1012067E7032065E720202168C8611D
:10212000206840680749084021684860012135203F
:10213000015500BF00213420015500BF002052E7A7
:10214000022050E700E800FEFFB583B004460E9F72
:102150000C9E0D9D002002903520005D012877D156
:10216000002E01D0002D02D1012007B0F0BD206863
:1021700080690121C9030840C00B002801D002205A
:10218000F3E700BF3420005D012801D10220ECE715
:1021900001213420015500BF522135200155002076
:1021A000A0630097204604A90EC902F0C4FB0028D2
:1021B00010D0A06B042806D100BF002134200155A7
:1021C00000BF0120D1E700BF00213420015500BF2E
:1021D0000320CAE7FF2D0BDD002001231B06FF2291
:1021E00000902046049902F0CFFCFF20029009E005
:1021F0000020EAB201235B0600902046049902F019
:10220000C3FC029500BF3946204602F050FD00286D
:1022100006D0A06B042801D10120A6E70320A4E783
:10222000307821688862761C0298401E0290681EF1
:1022300085B20298002824D1002D22D03B460022EE
:102240008021204602F0B8FC002802D003208CE751
:1022500039E0FF2D0BDD002001231B06FF2200903B
:102260002046049902F090FCFF20029009E0002033
:10227000EAB201235B0600902046049902F084FC38
:102280000295002DBFDC1921204602F0E2FC002857
:1022900006D0A06B042801D1012066E7032064E783
:1022A00020202168C86120684068084908402168EA
:1022B000486001213520015500BF0021342001551F
:1022C00000BF002051E702204FE7000000E800FEB9
:1022D00010B5044623492068884221D1224800696C
:1022E0000121890508432049086108460069012148
:1022F000890588431C49086109151C48FFF760F9E6
:102300000121C9021948FFF75BF91748C06901218B
:10231000890588431449C861182000F0CFF820E0EF
:102320001349206888421CD10F48006901214905E2
:1023300008430D49086108460069012149058843A1
:102340000949086140210948FFF73AF98021074807
:10235000FFF736F90448C06901214905884302495D
:10236000C86110BD00580040001002400004004841
:102370000054004010B586B00446354920688842B4
:1023800034D1344840690121890408433149486106
:10239000084640690121890408432E4948610846DE
:1023A000C0690121890508432A49C86108150190BF
:1023B0001220029000200390032004900120059039
:1023C00001A92548FFF79AF90120C00201900120D8
:1023D000059001A92048FFF791F90122002118205A
:1023E00000F084F8182000F075F82EE01B492068F2
:1023F00088422AD1174840690121890408431549B8
:10240000486108464069012189040843114948612F
:102410000846C0690121490508430E49C8614020AA
:1024200001901220029000200390032004900120CC
:10243000059001A90848FFF761F98020019001206B
:10244000059001A90448FFF759F906B010BD000036
:1024500000580040001002400004004800540040B2
:102460007047704702480068401C01490860704787
:10247000CC00002010B5064800681021084304492C
:102480000860032000F006F800F017F8002010BDE7
:102490000020024070B5044600F0D4F906467D21C4
:1024A000C900FDF723FE054600F0CAFE00222146C2
:1024B000501E00F01BF8002070BD704700BFC20620
:1024C000D20E01219140024A116000BF7047000006
:1024D00080E100E000BFC206D20E01219140024A15
:1024E000116000BF7047000000E100E070B50446D5
:1024F0000D4616462946204602F0B0FD70BD00008C
:102500000348006810210843014908607047000033
:102510000070004010B505F08DFD06F009F910BD02
:1025200029490968E022914302681143264A116053
:1025300026494968012212049143244A51601146F8
:102540000968012212049143204A11601146C968AA
:102550000122120491431D4AD1601146896801226B
:1025600012049143194A91600122120441681140FA
:10257000914204D1154909681143144A116001229E
:10258000520441681140914205D1104949685210E6
:1025900011430E4A51600179C907C90F002906D0BD
:1025A0000A498968012212041143084A91600222F3
:1025B00041681140022905D10449C968D203114379
:1025C000024AD160704700000070004000040140E2
:1025D00010B507484069012109040840002805D0CA
:1025E000FFF798FF012000040149486110BD000079
:1025F0000004014070B504460D4600268E48006870
:10260000C007C00FA84271D28B4800684008400044
:1026100028438949086008460068C007C00FA842DF
:1026200001D0012070BD022120680840022807D196
:1026300082484068F0218843A16808437F49486088
:102640002078C007C00F00283CD06068012808D15E
:102650007A480068012149040840002815D101206A
:10266000E0E76068022808D1744800680121490643
:102670000840002809D10120D4E7704800680221F1
:102680000840002801D10120CCE76C484068800850
:1026900080006168084369494860FFF739F90646D8
:1026A000606801280FD107E0FFF732F9801B644909
:1026B000884201D90320B5E7604840680C210840F2
:1026C0000428F1D1A4E06068022810D107E0FFF7E8
:1026D0001FF9801B5A49884201D90320A2E75748B5
:1026E00040680C2108400828F1D191E00FE007E094
:1026F000FFF70EF9801B5249884201D9032091E768
:102700004E4840680C2108400028F1D180E00221A9
:1027100020680840022807D148484068F0218843D3
:10272000A1680843454948602078C007C00F0028C9
:102730005FD06068012808D1404800680121490441
:102740000840002815D101206CE76068022808D1F4
:102750003A480068012149060840002809D10120B3
:1027600060E73648006802210840002801D10120B6
:1027700058E73248406880088000616808432F4964
:102780004860FFF7C5F80646606801280FD107E0EA
:10279000FFF7BEF8801B2A49884201D9032041E790
:1027A000264840680C2108400428F1D121E06068E7
:1027B00002280FD107E0FFF7ABF8801B20498842C1
:1027C00001D903202EE71D4840680C210840082845
:1027D000F1D10EE007E0FFF79BF8801B1849884213
:1027E00001D903201EE7154840680C210840002845
:1027F000F1D1114800684008400028430E490860A4
:1028000008460068C007C00FA84201D0012009E7B0
:10281000042120680840042808D10848406807219E
:1028200009028843E1680843044948600320FFF730
:1028300031FE0020F6E600000020024000100240B9
:102840008813000010B500F025F806494968F02209
:1028500011400909044A515CC8400449086008460F
:10286000006810BD00100240BC8D0008B8000020B8
:1028700010B5FFF7E7FF054949680722120211402A
:10288000090A034A515CC84010BD00000010024014
:10289000BC8D0008F8B50024002600250027002084
:1028A00000901B4844680C20204000282AD00428AF
:1028B00002D0082825D102E01648009025E00F201C
:1028C00080042040800C14490D5C1148C06A000748
:1028D000000F12490E5C0320C003204001210904AF
:1028E000884206D131460B48FDF700FC6843074695
:1028F00005E031460748FDF7F9FB684307460097B6
:1029000003E000BF0348009000BF00BF0098F8BD7F
:102910000010024000127A00CC8D0008DC8D000807
:1029200070B5044600252078C007C00F002861D08C
:10293000FE4840680C21084004280CD0FB48406841
:102940000840082813D1F94840684903084001218C
:10295000090488420BD1F548006801214904084068
:10296000002847D06068012844D0012070BD0020B5
:10297000EE498870FEF7CCFF054607E0FEF7C8FF7A
:10298000401BEB49884201D90320EFE7E748006884
:102990000121490408400028F0D12079E3498870DA
:1029A0006068002813D0FEF7B3FF054607E0FEF786
:1029B000AFFF401BDE49884201D90320D6E7DB4840
:1029C00000680121490408400028F0D012E0FEF719
:1029D0009FFF054607E0FEF79BFF401BD449884256
:1029E00001D90320C2E7D148006801214904084009
:1029F0000028F0D1022120680840022862D1CB488B
:102A000040680C21084000280CD0C84840680840A5
:102A100008281CD1C5484068490308400121C90362
:102A2000884214D1C148006802210840002804D01F
:102A3000E068012801D0012098E7BC480068F8212F
:102A400088432169C9000843B84908603AE0E06852
:102A5000002820D0B548006801210843B349086028
:102A6000FEF756FF054606E0FEF752FF401B6428BE
:102A700001D903207AE7AD48006802210840002808
:102A8000F2D0AA480068F82188432169C9000843A8
:102A9000A649086016E0A548006840084000A34920
:102AA0000860FEF735FF054606E0FEF731FF401BE4
:102AB000642801D9032059E79C4800680221084096
:102AC0000028F2D1082120680840082831D1206A66
:102AD000002817D09548406A01210843934948626D
:102AE000FEF716FF054606E0FEF712FF401B6428BE
:102AF00001D903203AE78D48406A022108400028A6
:102B0000F2D016E08948406A400840008749486290
:102B1000FEF7FEFE054606E0FEF7FAFE401B6428BF
:102B200001D9032022E78148406A02210840002899
:102B3000F2D1042120680840042865D17B48C0698F
:102B4000890608437949C8617A48006889150843AD
:102B500078490860FEF7DCFE054606E0FEF7D8FE81
:102B6000401B642801D9032000E772480068FF2158
:102B7000013108400028F1D06C48006A05218843E3
:102B80006A490862FEF7C4FE054607E0FEF7C0FE8C
:102B9000401B6749884201D90320E7E66348006A81
:102BA000022108400028F1D16048006A05218843CD
:102BB000A16808435D490862A068012812D1FEF7A8
:102BC000A7FE054607E0FEF7A3FE401B58498842D2
:102BD00001D90320CAE65548006A022108400028AE
:102BE000F1D011E0FEF794FE054607E0FEF790FEF7
:102BF000401B4F49884201D90320B7E64B48006A81
:102C0000022108400028F1D1102120680840102836
:102C100059D16069012826D14448406B04210843FA
:102C2000424948630846406B012108433F494863D5
:102C3000FEF76EFE054606E0FEF76AFE401B6428BE
:102C400001D9032092E63948406B02210840002850
:102C5000F2D03648406BF8218843A169C900084387
:102C6000324948632FE06069401D00280FD12F488A
:102C7000406B042188432D4948630846406BF82186
:102C80008843A169C9000843284948631BE02748D5
:102C9000406B04210843254948630846406B4008BF
:102CA00040004863FEF734FE054606E0FEF730FEBE
:102CB000401B642801D9032058E61C48406B0221C0
:102CC00008400028F2D1606A002873D01748406895
:102CD0000C21084008286BD0606A02284ED11348A6
:102CE000006801210906884310490860FEF710FEBC
:102CF000054606E0FEF70CFE401B642801D90320C0
:102D000034E60A4800680121490608400028F1D14C
:102D100000BF0648C06A00090001E16A0843034990
:102D2000C862A16A206B0843004905E00010024018
:102D3000881300000070004049687B22D203914351
:102D400008431D49486000BF084600680121090684
:102D5000084319490860FEF7DBFD054606E0FEF76B
:102D6000D7FD401B642801D90320FFE51248006805
:102D70000121490608400028F1D01BE00E480068F8
:102D80000121090688430C490860FEF7C1FD05468C
:102D900006E0FEF7BDFD401B642801D90320E5E5F0
:102DA000054800680121490608400028F1D101E0EA
:102DB0000120DBE50020D9E50010024010B50446F3
:102DC000002C01D1012010BD02215D2001553223CC
:102DD00000220321C902204602F0F4FE3223002221
:102DE0008021204602F04EFF3223002203214902B7
:102DF000204602F0E7FE20680068402188432168F1
:102E00000860204600F0F0F80020206600215D20D8
:102E1000015500BF5C20015500BF0020D3E770477B
:102E200001465D20405C7047F8B50446206846685E
:102E3000206885684020284000280BD1E807C00F93
:102E4000002807D040203040002803D02046E16C05
:102E50008847F8BD02202840002807D08020304055
:102E6000002803D02046216D8847F2E7FF2061301B
:102E70002840002845D040202840002811D05D205F
:102E8000005D03280CD0206E04210843206600BF9B
:102E90002068C068009020688068009000BF00E053
:102EA000D7E72020284000280FD0206E01210843BA
:102EB000206600BF20688068009000BF206800681E
:102EC000402188432168086000BFFF20013028406E
:102ED000002809D0206E08210843206600BF206822
:102EE0008068009000BF00BF20684068E0218843F0
:102EF0002168486001215D2001552046FFF78FFFC2
:102F0000A7E700BFA5E7000070B50446002C01D17B
:102F1000012070BD02215D200155204600F094F88B
:102F20002068006840218843216808600721090261
:102F3000E068884201D9002501E001252D030F2119
:102F40000902E068884206D007210902E068884249
:102F500001D00021A162206B002809D107210902BC
:102F6000E068884202D90221216301E00121216346
:102F7000A168606808432169084361690843012228
:102F80005202A16911400843E1690843216A0843DC
:102F9000A16A084321680860206B022805D12068D7
:102FA00000689100084321680860A069000C0421B2
:102FB0000840616A0843616B0843E168084328439D
:102FC000216848602168E06A08612068C069054995
:102FD00008402168C8610020206601215D2001555C
:102FE000002096E7FFF7000010B50446144920685A
:102FF000884224D11348C068891408431149C86025
:103000000846C068891488430E49C86020210920F9
:10301000C006FEF7D5FA40210920C006FEF7D0FA17
:1030200080210920C006FEF7CBFA064880690121FD
:1030300009038843034988611920FFF73FFA10BD4F
:10304000003001400010024010B586B0044624490B
:103050002068884242D1234840690121490408433D
:1030600020494861084640690121490408431D4937
:1030700048610846406901214904084319494861EB
:103080000846806989140843164988612020019008
:10309000022002900390032004900020059001A9D3
:1030A0000920C006FEF72AFB402001900020059071
:1030B00001A90920C006FEF721FB80200190002015
:1030C000059001A90920C006FEF718FB0022012186
:1030D0001920FFF70BFA1920FFF7FCF906B010BD15
:1030E00000300140001002407047000070B50446F7
:1030F000002500BF5C20005D012801D1022070BDC9
:1031000001265C20065500BF5D20005D01280DD022
:10311000FF2605366068B04206D1A068002803D1BA
:103120005D20005D042801D0022576E0002903D04F
:10313000002A01D0002B01D101256EE00020A064FF
:1031400001267603A06AB0420AD10120A0640726B6
:103150003602E068B04203D8206B022800D1A06498
:103160005D20005D042802D005265D200655002064
:103170002066A163A387E38722644420035346208B
:10318000035307263602E068B04204D92648E064BB
:103190002648206503E02648E0642648206501268D
:1031A0007603A06AB0420ED100BF20680068224EAC
:1031B000304026683060206800680126760330437E
:1031C0002668306000BF07263602E068B04203D8A8
:1031D0004620005B022807DB206840680126360392
:1031E000B0432668706006E0206840680126360318
:1031F00030432668706020684068E02630432668C7
:1032000070602068006840263040402804D0206864
:10321000006830432668306000BF00BF00265C2095
:10322000065500BF28466AE759590008915A000818
:10323000D1590008E15A0008FFDF000070477047CD
:1032400070B504462546681E0949884201D9012007
:103250000CE0681E074948610321081F01F0FEFECB
:1032600000200449886107200861002070BD00002B
:10327000FFFFFF0000E000E010B5FFF7E0FF10BD2A
:103280007047704710B50446002C01D1012010BDD5
:103290003920005D002802D1204600F00DF80221FF
:1032A00039200155211D206802F002FE012139203C
:1032B00001550020EBE7000010B504460748C0693F
:1032C000102108430549C861002203211120FFF79E
:1032D0000DF91120FFF7FEF810BD000000100240AC
:1032E00001460868C068012210430A68D060086877
:1032F0000068012210430A68106000207047704780
:1033000010B50446206800690221084040080028E2
:103310001CD02068C06808404008002816D0481F0C
:103320002168086101202076206880698007800F6D
:10333000002803D02046FFF7E2FF05E0204600F01A
:10334000C3F8204600F0C1F800202076206800690C
:1033500004210840800800281DD02068C06808406B
:103360008008002817D0C843216808610220207611
:1033700020688069032109020840002803D0204604
:10338000FFF7BDFF05E0204600F09EF8204600F064
:103390009CF8002020762068006908210840C008B9
:1033A00000281CD02068C0680840C008002816D03B
:1033B000C84321680861042020762068C06980071E
:1033C000800F002803D02046FFF799FF05E0204634
:1033D00000F07AF8204600F078F800202076206887
:1033E000006910210840000900281DD02068C0682D
:1033F00008400009002817D0C84321680861082048
:1034000020762068C069032109020840002803D003
:103410002046FFF774FF05E0204600F055F82046EF
:1034200000F053F80020207620680069C007C00F24
:1034300001214840484000280CD02068C06808405E
:1034400048404840002805D0C81E21680861204631
:1034500000F03CF82068006980210840C00900287D
:103460000BD02068C0680840C009002805D0C843B8
:10347000216808612046FFF703FF206800694021AA
:103480000840800900280BD02068C06808408009E7
:10349000002805D0C84321680861204600F046F89E
:1034A0002068006920210840400900280BD02068CE
:1034B000C06808404009002805D0C8432168086159
:1034C0002046FFF7DEFE10BD7047704770B5064618
:1034D000002426E0200114494018C568002D1ED0A4
:1034E000200140188068401E21010F4A8918886019
:1034F0002001114640188068002810D12001085C86
:10350000012806D1200140184068210189188860EF
:1035100004E000202101044A8918C860A847601C03
:10352000C4B2072CD6DB70BDE4030020704710B591
:103530000446002C01D1012010BD02216920015553
:103540002068006840084000216808600020216869
:1035500008602168486021688860204600F0F0F823
:103560000020E06600216920015500BF6820015558
:1035700000BF0020E0E710B504462068C069C0071E
:10358000C00F00280FD020680068FF2101310840DB
:10359000002808D0012021680862E06E012108435C
:1035A000E066692001552068C069022108400028B2
:1035B0000FD020688068C007C00F002809D0022003
:1035C00021680862E06E04210843E0660121692059
:1035D00001552068C0690421084000280FD02068E8
:1035E0008068C007C00F002809D004202168086245
:1035F000E06E02210843E066012169200155206840
:10360000C0690821084000280FD020688068C007E2
:10361000C00F002809D0082021680862E06E082148
:103620000843E066012169200155E06E002802D0C0
:10363000204601F075FD2068C06901210905084098
:1036400000280ED02068806889000840002808D033
:10365000881021680862012169200155204600F088
:103660009EF92068C0692021084000280DD02068FC
:1036700000680840002808D0204601F063FD20685B
:10368000806908210843216888612068C069802119
:103690000840002807D0206800680840002802D0B1
:1036A000204601F0DBFD2068C06940210840002869
:1036B00007D0206800680840002802D0204602F0A9
:1036C000F1FC10BD10B50446002C01D1012010BD45
:1036D000A069002800D000E000BF6920005D00283C
:1036E00002D1204600F09AF8022169200155206895
:1036F00000684008400021680860204602F0F0FCA5
:10370000012800D1E3E7606A002802D0204602F0D9
:1037100021FC206840680921C9028843216848606B
:10372000206880682A2188432168886020680068B2
:103730000121084321680860204602F083FCC6E7A7
:1037400010B504463249206888422FD13148C068FC
:103750000121890308432F49C8600846C068012138
:10376000890388432B49C86049150920C006FDF725
:1037700027FF012189020920C006FDF721FF012151
:10378000C9020920C006FDF71BFF0121090309201A
:10379000C006FDF715FF1F48806901218903084312
:1037A0001C4988611B20FEF789FE2FE01A4920681A
:1037B00088422BD117480069012149040843154963
:1037C00008610846006901214904884311490861DC
:1037D00004210920C006FDF7F3FE08210920C006D8
:1037E000FDF7EEFE01210920C006FDF7E9FE0221EA
:1037F0000920C006FDF7E4FE0648C069012149041E
:1038000008430449C8611C20FEF758FE10BD0000A3
:1038100000380140001002400044004010B586B05E
:1038200004465B492068884258D15A4840690121C2
:103830004904084357494861084640690121490441
:103840000843544948610846406901214904084336
:1038500050494861084640690121490408434D49DF
:103860004861084680690121890308434949886104
:10387000481501900220029001200390032004903B
:103880000120059001A90920C006FDF737FF01209E
:10389000800201900120059001A90920C006FDF7D2
:1038A0002DFF0120C00201900120059001A90920EF
:1038B000C006FDF723FF01200003019001200590C1
:1038C00001A90920C006FDF719FF012200211B20D4
:1038D000FEF70CFE1B20FEF7FDFD57E02E49206889
:1038E000884253D12B4840690121490408432949A2
:1038F0004861084640690121490408432549486157
:1039000008464069012149040843224948610846A4
:1039100040690121490408431E4948610846C069BD
:103920000121490408431B49C86104200190022079
:10393000029001200390032004900120059001A92A
:103940000920C006FDF7DAFE08200190012005904D
:1039500001A90920C006FDF7D1FE012001900590C4
:1039600001A90920C006FDF7C9FE0220019001202F
:10397000059001A90920C006FDF7C0FE0122002123
:103980001C20FEF7B3FD1C20FEF7A4FD06B010BD01
:10399000003801400010024000440040704770476A
:1039A00070B500240025002600202449087000BFBF
:1039B00006E023A0F100234A89184860701CC6B2B3
:1039C0000C2EF6DB05202049087000F0B1FC0446FF
:1039D000002C0ED1002500BF00F0DCFB0446681C63
:1039E000C5B2002C01D0052DF6DB002C01D100F072
:1039F00031F8002C0ED115491548FDF7E1FA0025E4
:103A000000BF00F05FFC0446681CC5B2002C01D06A
:103A1000052DF6DB002C0AD1002500BF00F072FC5A
:103A20000446681CC5B2002C01D0052DF6DB002C25
:103A300002D1012001490870204670BD0801002014
:103A4000300000001C010020040100208A07002033
:103A500010060020F8B500270126002527E01748AA
:103A600000231A46294600901548FDF707FB044637
:103A7000002C07D113A0E900134A89184860761C6E
:103A800000270DE0032C02D10B273846F8BD00F0CB
:103A9000E3FAC7B20A48FDF7B7F80948FDF7F2F9AB
:103AA00003200002064909680861681CC5B20B2D95
:103AB000D5DD701E054908703846E7E7FFFF1F0097
:103AC00010060020310000001C0100201101002020
:103AD000FEB500260024002700250020F8490860D4
:103AE000F848407883286FD018DC70286DD00CDC43
:103AF00044286BD004DC002869D0362868D158E00F
:103B0000452876D04628F9D1B9E0712872D07D28B1
:103B100071D0802870D08228F0D16EE2A0286CD0BD
:103B200008DC84280FD08C2868D08F2867D09F2885
:103B3000E4D14EE0C1286ED0C2286DD0C3286CD02D
:103B4000C428DBD140E2DF48C0780011DE490870AC
:103B5000DC48C0780007000F4870DA488078001110
:103B60008870D84880780007000FC870D548007862
:103B700000110871D34800794871D44909780622A8
:103B80005143D34A88180622CF49FCF7EAFAD1A15B
:103B9000CE48007806225043CD4A80180079C000F4
:103BA000CD4A80184160C9480078401CC749087058
:103BB00046E2CA484078012805D10B2069460870C2
:103BC000C74803F03FFE3BE228E09CE19FE043E072
:103BD00015E2BC4800780011C24908709E20487068
:103BE0000520887001200874084600F023FC054673
:103BF0000CE0EBE02BE151E1E9E0FFE11DE06AE0E0
:103C0000601CC4B2B74800F015FC0546002D01D079
:103C1000052CF5DB14E2B0E1B6E1BCE100F052FBAB
:103C20000546002404E0601CC4B200F04BFB0546CE
:103C3000002D01D0052CF6DB02E200F063FB054607
:103C4000002404E0601CC4B200F05CFB0546002DBB
:103C500001D0052CF6DBF3E19A488078A249087080
:103C60009848C078A14908709F480078C02805D1BD
:103C70000520694608709A4803F0E4FDE0E19148A8
:103C800000780011974908704720487052208870CA
:103C900061219448C170752101716D2141716621C6
:103CA00081716521C1716C2101726421417208200A
:103CB0008C490874084600F0BDFB0546002405E069
:103CC000601CC4B2874800F0B5FB0546002D01D04A
:103CD000052CF5DBB4E17B480078001181490870C0
:103CE000902048700020887001200874084600F079
:103CF000A1FB0546002405E0601CC4B2794800F031
:103D000099FB0546002D01D0052CF5DB98E16D48A7
:103D10008078432818D004DC412807D0422832D1CB
:103D20000BE0652817D066282DD120E00F206946CA
:103D300008706B4803F086FD46E010206946087065
:103D4000674803F07FFD3FE00C2069460870644837
:103D500003F078FD38E00D2069460870491C012009
:103D6000FCF73DFA69465E4803F06CFD2CE00D203F
:103D700069460870491C0020FCF731FA694658482A
:103D800003F060FD20E04F480078001155490870AD
:103D9000002048704B484078887003215148C1701A
:103DA000022050490874084600F044FB05460024F0
:103DB00005E0601CC4B24B4800F03CFB0546002DFA
:103DC00001D0052CF5DB00BF00BF39E138E100264A
:103DD0003AE0062070433E49095C3A48C078001139
:103DE00081422FD106207043394940184178354827
:103DF000C0780007000F814224D106207043344967
:103E0000401880782F498978091188421AD10620F4
:103E100070432F494018C0782A4989780907090F4B
:103E200088420FD12748007800112749087125489A
:103E30000079487106217143254A881806222249D3
:103E4000FCF78FF9701CC6B20E2EC2DBF8E01D48DD
:103E500000780011234908707A2048701F48808834
:103E6000C005470E1D48407AC00180210840074325
:103E70001C48877001201B490874084600F0DAFAD4
:103E80000546002405E0601CC4B2164800F0D2FAD2
:103E90000546002D01D0052CF5DBD1E0094800785E
:103EA0000011104908707E2048700C480078887016
:103EB00001200874084600F0BDFA054600241DE004
:103EC000F00000208A0700201501002014010020C6
:103ED0009C070020310000001C0100201000002081
:103EE000F0010020780700201201002013010020BB
:103EF000601CC4B2534800F09DFA0546002D01D065
:103F0000052CF5DB9CE05048007800114D49087005
:103F1000722048704C48407C002813D001208870E3
:103F200008744A480078002805D1012069460870C5
:103F3000474803F087FC0020029002A9454803F09F
:103F400081FC09E000203F4988700120087402903C
:103F500002A9404803F076FC3A4800F06BFA0546A7
:103F6000002405E0601CC4B2364800F063FA054640
:103F7000002D01D0052CF5DB62E0072069460870B2
:103F8000334803F05FFC5BE00B2069460870304863
:103F900003F058FC54E02C480078001129490870BF
:103FA000C020487000200874084600F043FA054617
:103FB00005E0601CC4B2234800F03CFA0546002D21
:103FC00001D0052CF5DB3BE01F48007800111D49AE
:103FD0000870C520487000200874084600F02AFACE
:103FE000054605E0601CC4B2164800F023FA0546F9
:103FF000002D01D0052CF5DB22E000BF20E01248A7
:10400000007800110F490870002048700E48407871
:10401000887000210B48C17002200A4908740846C4
:1040200000F008FA0546002405E0601CC4B205480B
:1040300000F000FA0546002D01D0052CF5DB00BF8D
:1040400000BFFEBD780700208A0700201000002076
:10405000F00100206407002010B50248FCF726FE9E
:1040600080B210BD1006002000B585B01C48C069A4
:104070000121890708431A49C8610846406901219E
:104080008904084316494861881500901220019060
:104090000320039000200290049069461148FDF728
:1040A0002DFB002203211E20FEF720FA1E20FEF722
:1040B00011FA0B4840690121890408430849486105
:1040C000481500900020019003900220029069465C
:1040D0000448FDF713FBFCF775F905B000BD0000BF
:1040E000001002400004004870B504460D46164614
:1040F000324629462046FCF78BF970BD70B5044660
:104100000D461646324629462046FCF79BF970BDFF
:1041100010B5FFF7A9FF002012494860002111489F
:104120008160C160016141618161C1610F210162F2
:10413000002141620F21243001710B4809490860B8
:104140000846FCF79FFE012308220849084803F0AF
:104150004BFB084BFF22F5320121084604F006F81C
:1041600010BD00001006002000780040090100206A
:10417000640700201944000810B5002004490870A5
:10418000C020487000200874084600F053F910BDA4
:1041900078070020F8B500262148007805283CD192
:1041A0002021204801620521243001712438FCF7C8
:1041B00069FE1D4800231A46052100901948FCF7A6
:1041C0005DFF0546032D02D10B263046F8BDFFF7F3
:1041D00043FF044601200003204000280AD00520A8
:1041E000124908700F48FCF70FFD0E48FCF74AFE15
:1041F00000260DE0002C0BD10F200C4908700F2178
:1042000008480162243001712438FCF73BFE0A267D
:10421000032000020349096808613046D6E7000020
:104220000401002010060020FFFF1F0001010020F4
:1042300008B51F480068002801D0FFF749FC01219C
:1042400049021C48FDF750FB012809D11A480078A3
:1042500000280ED1FFF7A4FB01201749087008E0E1
:10426000012149021348FDF73FFB002801D1124903
:1042700008706946114803F0C8FA012800D008BD4B
:104280000F480078012810D100200D4908706846B9
:104290000078002804D0012805D100F0AFF803E031
:1042A000FFF76AFF00E000BF00BF00BFE7E70000C4
:1042B000F0000020000400480801002064070020EE
:1042C0008401002010B50F200B490870842048702D
:1042D0000A48008800128870084801780648C170B2
:1042E000074801780448017103200349087408460F
:1042F00000F0A0F810BD00007807002002010020A7
:104300000401002010B50F2008490870872048706C
:104310000020887026210548C17006210171032004
:1043200002490874084600F085F810BD780700209F
:1043300070B5002400BF012149022D48FDF7D4FAD1
:104340000028F8D06420FDF765F80020294908709E
:104350000122A020FFF7D2FEFF2201322549A02032
:10436000FFF7C2FE002800D00C24002C39D12148D0
:1043700080300078022834D11E48803040780328ED
:104380002FD11C4A803291788420002902D0042940
:1043900007D100E000BF01225203174B1A800D2401
:1043A0001DE007E00246134B9B5CDB06DB0E5B1C4B
:1043B0001A18D0B200BF0F4A125C5211032A03D060
:1043C0000A4680328242EDDA0A4B021D9A5C1202E2
:1043D0001D46431DEB5C1A43074B1A8000BF00BF0C
:1043E00004E001204003044908800D24204670BDEC
:1043F00000040048630600200201002010B50020E0
:1044000004490870C520487000200874084600F070
:1044100011F810BD7807002010B5012149030348A9
:10442000FDF76BFA01200249087010BD0008004832
:1044300084010020FEB5044600200190277C002561
:104440000090FDF765FA009008E0FDF761FA009929
:10445000401A1A49884201D90B20FEBD184800684D
:104460000028F2D101201649086000201549086093
:10447000019006E000201449019A88540198401CDC
:10448000019001980F28F5D360780F490870012535
:1044900005E0681EA11C085C0B4948556D1C781C82
:1044A0008542F6D321787B1C074A0848FCF7D4FEE6
:1044B0000646002E00D1D0E70820CEE7FFFF1F0000
:1044C000F4000020FC00002054060020100600200C
:1044D00010B50348FDF7D4FA0148FDF783FA10BD83
:1044E0009805002070B504460D460026FDF710FA29
:1044F00006462068806910210840000900284CD039
:104500003520005D122807D03520005D522803D0E9
:104510003520005D62280CD12068406801214906E1
:104520000840884205D020684068C91208432168C5
:10453000486013E0681C002810D0002D04D0FDF75F
:10454000E7F9801BA84209D901213520015500BF98
:1045500000213420015500BF032070BD2068806910
:104560002021084040090028E4D010202168C861BB
:1045700020202168C86120684068094908402168F6
:1045800048600420A06301213520015500BF0021AF
:104590003420015500BF0120DFE70020DDE70000E7
:1045A00000E800FE38B5044600BF3420005D012855
:1045B00001D1022038BD01213420015500BF2068FF
:1045C000806904210840800800280DD02068406AD6
:1045D000C1B2626A501C60621170208D401E20853D
:1045E000608D401E608596E02068806980210840CB
:1045F000C009002831D0208D002821D1608D0028ED
:104600001ED0206840688505AD0D608DFF280ADD4D
:1046100000204B04FF2229460090204600F0B4FA07
:10462000FF20208577E000200090608DC2B201233A
:104630005B062946204600F0A7FA608D20856AE0D7
:1046400000BF00213420015500BFA06B402108436A
:10465000A0632046FDF701FB5DE0206880694021F2
:1046600008408009002816D0608D002806D12068F7
:10467000406809020843216848604CE000BF0021FF
:104680003420015500BFA06B40210843A0632046A1
:10469000FDF7E3FA3FE020688069202108404009E7
:1046A000002822D020680068F4218843216808602F
:1046B00020202168C861206840681A4908402168A4
:1046C000486001213520015500BF002134200155EB
:1046D00000BF3520005D622803D12046FDF770FC45
:1046E00019E02046FDF71CFB15E0206880691021C9
:1046F0000840000900280ED010202168C86100BFC2
:1047000000213420015500BFA06B04210843A063A1
:104710002046FDF7A2FA00BF00213420015500BF5A
:10472000002047E700E800FE38B5044600BF34200B
:10473000005D012801D1022038BD0121342001553E
:1047400000BF2068806902210840400800280CD082
:10475000616A481C6062087821688862208D401E6A
:104760002085608D401E608596E0206880698021EC
:104770000840C009002831D0208D002821D1608D4B
:1047800000281ED0206840688505AD0D608DFF288B
:104790000ADD00204B04FF2229460090204600F04D
:1047A000F3F9FF20208577E000200090608DC2B2F1
:1047B00001235B062946204600F0E6F9608D20853E
:1047C0006AE000BF00213420015500BFA06B4021EA
:1047D0000843A0632046FDF740FA5DE02068806949
:1047E000402108408009002816D0608D002806D19D
:1047F0002068406809020843216848604CE000BF17
:1048000000213420015500BFA06B40210843A06364
:104810002046FDF722FA3FE0206880692021084009
:104820004009002822D020680068F22188432168CE
:10483000086020202168C861206840681A49084043
:104840002168486001213520015500BF0021342036
:10485000015500BF3520005D522803D12046FDF7E9
:10486000B0FB19E02046FDF75CFA15E0206880698E
:1048700010210840000900280ED010202168C861CE
:1048800000BF00213420015500BFA06B0421084364
:10489000A0632046FDF7E1F900BF00213420015557
:1048A00000BF002048E7000000E800FEFFB581B02F
:1048B000044615461E460A9F01204003F2B200231B
:1048C00000902046029900F05FF93946204600F03A
:1048D000EEF9002807D0A06B042802D1012005B012
:1048E000F0BD0320FBE7012E03D1E8B22168886206
:1048F00015E0FF2000022840001221688862394636
:10490000204600F0D4F9002806D0A06B042801D17D
:104910000120E4E70320E2E7E8B2216888623B4631
:1049200000224021204600F047F9002801D0032052
:10493000D5E70020D3E7FFB581B0044615461E46F3
:104940000A9F01204003F2B2C30200902046029960
:1049500000F01AF93946204600F0A9F9002807D0DE
:10496000A06B042802D1012005B0F0BD0320FBE7B5
:10497000012E03D1E8B22168886215E0FF20000211
:1049800028400012216888623946204600F08FF9DD
:10499000002806D0A06B042801D10120E4E7032001
:1049A000E2E7E8B2216888623B4600228021204687
:1049B00000F002F9002801D00320D5E70020D3E75A
:1049C00010B5044600BF3420005D012801D102204B
:1049D00010BD01213420015500BF206880691021DD
:1049E0000840000900280FD010202168C86100BFCE
:1049F00000213420015500BFA06B04210843A063AF
:104A00002046FDF72AF941E0206880690821084026
:104A1000C008002803D008202168C86136E020685B
:104A2000806904210840800800280DD02068406A71
:104A3000C1B2626A501C60621170208D401E2085D8
:104A4000608D401E608521E020688069202108403B
:104A5000400900281AD020680068FC21884321689A
:104A60000860206840680121C90308432168486044
:104A700020202168C86101213520015500BF002197
:104A80003420015500BF2046FDF7EAFC00BF00219D
:104A90003420015500BF00209AE710B5044600BF3E
:104AA0003420005D012801D1022010BD01213420F5
:104AB000015500BF206880691021084000090028C6
:104AC0001AD0608D002807D110202168C86100BF6E
:104AD00000213420015550E010202168C861A06BEE
:104AE00004210843A06300BF00213420015500BF0A
:104AF0002046FDF7B2F840E02068806908210840B0
:104B0000C008002803D008202168C86135E020686B
:104B1000806920210840400900281BD020680068D7
:104B2000FE21884321680860206840680121C9038C
:104B300008432168486020202168C8610121352090
:104B4000015500BF00213420015500BF2046FDF76C
:104B500088FC12E020688069022108404008002893
:104B60000BD0608D002808DD616A481C60620878FF
:104B700021688862608D401E608500BF002134205E
:104B8000015500BF002090E7F0B50C4600210568F4
:104B90006968084D2940A505AD0D1604FF273F049F
:104BA0003E4035431D43059E3543294305686960F2
:104BB000F0BD0000009800FCFFB581B004460E4631
:104BC0001D46FCF7A5FE07460398002820D114E0F7
:104BD000681C002811D0002D04D0FCF799FEC01BE2
:104BE000A8420AD901213520015500BF00213420F7
:104BF000015500BF032005B0F0BD2068806930403A
:104C0000B04201D1012000E000200028E0D01EE0E9
:104C100013E0681C002810D0002D04D0FCF778FEAB
:104C2000C01BA84209D901213520015500BF002130
:104C30003420015500BF0320DDE720688069304043
:104C4000B04201D1012000E000200028E1D1002085
:104C5000D1E770B504460D460026FCF759FE06461E
:104C60001CE029462046FFF73DFC002801D001202A
:104C700070BD002D04D0FCF74BFE801BA8420DD95F
:104C8000A06B20210843A06301213520015500BFFE
:104C900000213420015500BF0320E9E72068806926
:104CA0002021084040090028DBD00020E0E770B553
:104CB00004460D46FCF72CFE06461FE0294620461A
:104CC000FFF710FC002801D0012070BD681C0028EF
:104CD00014D0002D04D0FCF71BFE801BA8420DD978
:104CE000A06B20210843A06301213520015500BF9E
:104CF00000213420015500BF0320E6E720688069C9
:104D00000221084040080028D8D00020DDE700003C
:104D100010B50348FCF749FE00F004F810BD000090
:104D20009805002010B50F48FCF798FF002818D10F
:104D30000D480C4908600D48486000210948816011
:104D40000121C1600021016141618161C161016294
:104D5000FCF72BFE0348FCF785FF00210148FCF718
:104D6000DDFD10BD98050020005800405D3E30205C
:104D70007FB504460D4600260020039000BF0D4875
:104D8000FCF76CFF0128FAD10003012103AA0B46AE
:104D90000092019102902A4621460648FDF712F939
:104DA0000646002E01D0FFF7B3FF6846007B04B033
:104DB00070BD000098050020F0B585B004460D4692
:104DC00016461F460020039000BF0D48FCF746FF23
:104DD0000128FAD1000301232A46214601970096B3
:104DE00002900748FDF7B0F903900398002804D01B
:104DF000FFF78EFF012005B0F0BD0020FBE70000AB
:104E00009805002077B583B004460D46002600BF04
:104E10000D48FCF723FF0128FAD10003012105AA60
:104E20000B460092019102902A4621460648FDF762
:104E30008BF90646002E04D0FFF76AFF012006B06A
:104E400070BD0020FBE700009805002000B585B08C
:104E5000184840690121C9040843164948610846B9
:104E600040690121C90408431249486108200090A3
:104E70000120019002900020039069460E48FCF743
:104E80003DFC002208210C48FCF73BFD042000906B
:104E900069460948FCF732FC012204210648FCF768
:104EA00030FD01F075FB012208210348FCF729FDC4
:104EB00005B000BD0010024000080048FEB5002407
:104EC0000025002102910191002645480068002834
:104ED00015D044480068006820218843414909688A
:104EE00008603F480068401E3D4908603D48006832
:104EF0000068202108433B490968086000E0FEBDC6
:104F00006946394802F01EFC68460078040269468A
:104F1000354802F017FC6846007804436946324879
:104F200002F010FC68460078050269462E4802F03F
:104F300009FC68460078054302A92B4802F002FCF0
:104F400001A9294802F0FEFB052C2CD006DC230029
:104F500001F086FE050F1023242C2F00062C26D0EE
:104F6000072C25D02148201800281DD0012820D149
:104F70001BE020E0002D02D0012D08D103E00F201E
:104F80001B49087003E010201949087000BF00BFDA
:104F90001749184802F056FC0DE000BF294620468C
:104FA00002F074FD07E006E005E000BF00BF00BFAF
:104FB00001E0022600BF00BF002705E069460A485D
:104FC00002F0C0FB781CC7B2684600798742F5DB67
:104FD00031466846007A00F00FF800BF8FE7000006
:104FE000A401002028050020500800200200FFFF37
:104FF000A8010020F001002013B582B00C4600206B
:105000000190134802F0B9FB05281ED31148019006
:10501000022201A90E4802F06BFBFF200002204093
:1050200000122106090C08430190022201A9084838
:1050300002F05EFB012202A9054802F059FB064876
:1050400000F05CF9012004B010BD0020FBE7000077
:1050500060080020FFFE00002805002010B5002891
:1050600019DA1A4A03071B0F083B9B089B00D2580A
:105070008307DC0EFF23A3409A438B071B0E840794
:10508000E40EA3401A43114B0407240F083CA40864
:10509000A4001A5118E00E4A03231B02D2188308F9
:1050A0009B00D2588307DC0EFF23A3409A438B0753
:1050B0001B0E8407E40EA3401A43054B032424026D
:1050C0001B198408A4001A5110BD00001CED00E05B
:1050D00000E100E010B50D48C0690121090708434F
:1050E0000A49C861002211460120FDF7FFF901209D
:1050F000FDF7F0F9E02006490860064848600846D8
:10510000FDF70EFAFDF7FCF910BD0000001002409B
:10511000E80000200200010010B5FDF759FA10BDAB
:1051200010B504460548844201D101F04FFB044804
:10513000844201D101F06AF9002010BDB8040020BA
:105140002805002010B504466920005D222803D000
:105150006920005D32280DD10748844202D12046E3
:1051600001F044FC0548844202D1204601F04CFA8B
:10517000002010BD0220FCE7B80400202805002014
:1051800001466920405C012803D06920405C122858
:105190005FD100BF6820405C012801D10220704728
:1051A00001226820425400BF00BF12038868904269
:1051B0000AD10869002803D1274A5C20425220E026
:1051C000FF225C2042521CE0886800280AD108694E
:1051D000002803D1FF225C20425212E07F225C2093
:1051E00042520EE0012212078868904209D10869F4
:1051F000002803D17F225C20425202E03F225C2043
:10520000425200BF0020C8666920405C122803D1CA
:1052100032226920425402E0222269204254086866
:105220000068FF22013210430A6810600868806835
:10523000012210430A68906000BF00226820425497
:1052400000BF08680068202210430A681060002030
:10525000A5E70220A3E70000FF01000038B50446DF
:105260000020009000256920005D122803D06920ED
:10527000005D322839D11E48844204D1684601F0CD
:10528000AFFA054606E01B48844203D1684601F0A8
:10529000C7F80546012D05D16846007821680885C4
:1052A000002038BD2068006880218843216808609C
:1052B0006920005D322803D122216920015508E0D0
:1052C00020688068400840002168886001216920CA
:1052D0000155094B00224021204601F007F8002823
:1052E00001D00320DDE70020DBE70220D9E7000042
:1052F000B804002028050020FFFFFF0101466920B7
:10530000405C012803D06920405C22282AD100BFDC
:105310006820405C012801D10220704701226820EA
:10532000425400BF0020C8666920405C222803D197
:1053300032226920425402E0122269204254086855
:105340008068012210430A68906000BF0022682034
:10535000425400BF08680068802210430A68106049
:105360000020DAE70220D8E710B51448006800688A
:1053700020218843114909680860104800680068C6
:10538000802188430D490968086000200C490860A5
:105390000C4908600C4908600C4908600C49086019
:1053A00000F068F802F054FC012210210948FCF7D3
:1053B000A8FA02F061FC002010BD0000B804002033
:1053C000B4010020B8010020BC010020C001002071
:1053D000C40100200008004810B5072016490870D5
:1053E000082016490870AA2280211548FAF7CBFE3A
:1053F000AA2280211348FAF7C6FE0020124908604D
:105400001249086012490860124908601249086090
:1054100003F0A0FB02F01CFC002210210F48FCF757
:1054200070FA03F0E5FA6420FBF7F4FF03F033FBB6
:1054300003F0C8FA002010BDC8010020D5010020EB
:10544000BA0A0020B0080020B4010020B8010020F2
:10545000BC010020C0010020C40100200008004859
:1054600003480078401C02490870084600787047DD
:10547000B001002010B5164816490860E12040022E
:105480004860002113488160C16001610C214161C5
:1054900000218161C161016200200E494862084615
:1054A000FEF745F80B48FEF70DF900200A49087091
:1054B0000A490870AA2280210948FAF764FEAA2244
:1054C00080210848FAF75FFE0248FFF759FE10BD39
:1054D00000380140B8040020C8010020D501002098
:1054E000BA0A0020B0080020F0B587B000260027D7
:1054F00000200690002407200590002003900190D2
:105500000290C2480068002815D0C14800680068B1
:1055100020218843BE4909680860BC480068401ED5
:10552000BA490860BA480068006820210843B849B1
:105530000968086001E007B0F0BDB648B6490968DF
:10554000465CB5480068401CB449884205D3B2485F
:105550000068081A0121081A02E0AF480068401CE0
:10556000AC49085C00020643AB480068801CAB49AC
:10557000884205D3A8480068081A0221081A02E0E8
:10558000A5480068801CA3490F5CA3480068C01CA4
:10559000A249884205D3A0480068081A0321081AC6
:1055A00002E09D480068C01C9A49085C000207435D
:1055B00099480068001D9949884205D396480068BB
:1055C000081A0421081A02E093480068001D914956
:1055D000085C069090480068401D9049884205D3B9
:1055E0008D480068081A0521081A02E08A480068F8
:1055F000401D88494418202F73D00EDC122F2AD06A
:1056000006DC002F18D0012F17D0102F6AD117E019
:10561000142F3DD0162FF9D16EE0422F7BD004DC41
:10562000222F79D0342FF1D19EE0442F75D07C48C1
:1056300038180028EAD1C4E0C9E003200590C6E08C
:1056400001F09CFB69460874012304AA1120069905
:1056500000F018F9BBE0207804AA03A901F03CFC93
:1056600069464874487C002802D002280BD107E024
:105670006846037C1320039A069900F003F905E0BD
:105680000220059002E00120059000BF00BF9EE0CF
:10569000002518E001F06EFB01465F4800684019E4
:1056A000401D5E4A904205D35B480068121A681D8F
:1056B000801A03E0584802685019401D554A105C92
:1056C0004855681CC5B2B542E4DB01F05FFD694690
:1056D0000874087C002806D0012807D0022809D1C8
:1056E00005E029E070E00020059003E000BF022003
:1056F000059000BF00BF6AE0207804AA03A901F06A
:10570000E3FA69464874487C002807D001280DD088
:1057100002280FD10BE031E01AE03AE06846037C42
:105720001720039A069900F0ADF803E000BF0220AD
:10573000059000BF00BF4AE00021684601740121C6
:105740004174022304AA2120069900F09BF83EE050
:10575000C02168460174FE214174022304AA23205B
:10576000069900F08FF832E02078012802D0022854
:1057700002D100E000E000BF00BF28E02948007827
:1057800069460874012304AA4320069900F07AF8B8
:105790001DE00220694608712078002805D0207895
:1057A000012802D0022005900AE0207801A90131E9
:1057B000FAF715FD01A91C4802F044F800200590F5
:1057C00005E0FFF709FE02E00320059000BF00BFDF
:1057D000701D1149096840181049884206D3701D90
:1057E0000D49096840180D49401A03E00A4800684D
:1057F000401D8019084908600598072804D004480E
:10580000059A069900F012F800BF94E6DC0100202A
:10581000B8040020B0080020BC0100200A020000EB
:105820005655FFFF10000020F001002070B506461D
:105830000C461546114800688021081A104909686D
:105840004018401E052816D3012001F027FA002039
:1058500001F024FA012001F021FA002001F01EFAE3
:10586000204601F01BFA284601F018FA3046FFF7EF
:1058700045FD012070BD0020FCE70000C0010020B4
:10588000C4010020F8B505460E4617461C461548CB
:1058900000688021081A144909684018401E611CDC
:1058A00088421CD3E0B201F0F9F9201201F0F6F9B8
:1058B000E8B201F0F3F9281201F0F0F9304601F0F6
:1058C000EDF9002304E0F85C01F0E8F9581C83B21C
:1058D000A342F8DB0548FFF711FD0120F8BD0020C9
:1058E000FCE70000C0010020C4010020B804002033
:1058F00070B505460C46114800688021081A104909
:1059000009684018401E611C884214D3002304E03B
:10591000E85C01F0C3F9581C83B2A342F8DB0948E4
:10592000FFF7ECFC00BF054800680549096888429C
:10593000F9D1012070BD0020FCE70000C00100206B
:10594000C4010020B804002010B50248FDF76CFA2D
:1059500010BD00005404002010B504462068C06843
:10596000216C0880206C801C20644620005B401E57
:1059700081B246200153005B002813D10121490365
:10598000A06A884202D10848E06410BD20684068DF
:105990004021884321684860E08F002802D12046DA
:1059A00000F0D4F800BFF0E7AD59000838B5044660
:1059B0002068C06881B2009168460088206840680D
:1059C0004021884321684860204600F0BFF838BD78
:1059D00010B504464620005B012817DD2068C0682A
:1059E000216C0880206C801C20644620005B801E97
:1059F00081B246200153005B012813D12068406822
:105A0000012109030843216848600BE02068017BFD
:105A1000226C501C206411704620005B401E81B235
:105A2000462001534620005B002813D10121490381
:105A3000A06A884202D10848E06410BD206840682E
:105A40004021884321684860E08F002802D1204629
:105A500000F07CF800BFF0E75D5A000838B5044656
:105A60002068017B009168460078A06C401EA0640D
:105A7000A06C00280BD12068406840218843216831
:105A80004860E08F002802D1204600F05FF838BD62
:105A900010B50446A06B00882168C860A06B801C0C
:105AA000A063E08F401EE087E08F002817D101211E
:105AB0004903A06A884205D120680068491008435C
:105AC0002168086020684068802188432168486018
:105AD0004620005B002802D1204600F037F810BDB8
